:100000000128831686012F308700000183120828FB
:100010000708A1000B2820302102031936282130BF
:100020002102031939282230210203193C282330E8
:10003000210203193F2824302102031942282530C8
:1000400021020319452826302102031948282730A8
:10005000210203194B282830210203194E28293088
:100060002102031951280030860008283F308600FD
:1000700008280630860008285B30860008284F30A4
:10008000860008286630860008286D30860008281B
:100090007D30860008280730860008287F308600DB
:0800A0000828673086000828DB
:02400E00713F00
:00000001FF
