:1000000000008312031341309F008316031307304F
:1000100081000E309F0005148601831203138601B0
:100020001420260886001028031527200B111F1501
:100030001F1918281E08A000200838206820080072
:100040002030200225288717142886131428FF3013
:10005000A100A200A3002D200800A10B2D28312013
:100060000800A20B312835200800A30B3528080012
:100070000930A600D230200203180800A603C230BF
:10008000200203180800A603AE302002031808005F
:10009000A6039E30200203180800A6038A3020021F
:1000A00003180800A6037530200203180800A603F1
:1000B0005230200203180800A60333302002031830
:1000C0000800A6031C30200203180800A60308003D
:1000D000260825020318762026082402031C712016
:1000E00008002608A4000130880008002608A500A2
:0600F00002308800080048
:02400E00713F00
:00000001FF
