:1000000001288316860183120430B1008030A700D6
:10001000A80019208030A900B0004420B10B0628A8
:100020000430B10013288030A8003520B10B13280C
:1000300062280C30860028200630860028200330F5
:1000400086002820093086002820A70B19280034B4
:100050000130A6000430A5000430A400A40B2E2813
:10006000A50B2E28A60B2E28003409308600282048
:100070000330860028200630860028200C308600B9
:100080002820A80B35280034C03086002820603096
:1000900086002820303086002820903086002820D6
:1000A000A90B442853289030860028203030860041
:1000B0002820603086002820C03086002820B00B21
:0A00C0005328003400308600622847
:02400E00713F00
:00000001FF
