:1000000001288316860183120430B1000130A0005C
:100010003C30B3002D30B4000F206E2075288030A6
:10002000A700A80022208030A900B0004D20B10B0D
:100030000F280430B1001C288030A8003E20B10BEE
:100040001C286B280C3086003120063086003120B9
:10005000033086003120093086003120A70B22288A
:1000600000340130A6000430A5000430A400A40B25
:100070003728A50B3728A60B37280034093086000F
:1000800031200330860031200630860031200C30CC
:1000900086003120A80B3E280034C0308600312075
:1000A000603086003120303086003120903086006C
:1000B0003120A90B4D285C2890308600312030304B
:1000C00086003120603086003120C030860031202B
:1000D000B00B5C2800340030860000348030A7006C
:1000E0007620A00B6E288520003475280C30860001
:1000F000312006308600312003308600312009305F
:1001000086003120A70B76280034C03086003120CD
:1001100060308600312030308600312090308600FB
:080120003120B40B85280034E6
:02400E00713F00
:00000001FF
