:100000008312031341309F008316031307308100CE
:100010000E309F000514831203130030AB00AE00B6
:100020000730AD0083168601870100018312FF307F
:100030008700CC28232030202908BA002A08BB00DA
:100040009120D52898281030A8000030B60009303B
:10005000B700003086000030B900A900AA000800EF
:100060002030A400A50046208030A600A700B90AD1
:1000700071200030BC00A80B30280430A8004028B4
:100080008030A5006220A80B402800340C30860088
:100090005520063086005520033086005520093053
:1000A00086005520A40B462800340130A3000430FC
:1000B000A2000430A100A10B5B28A20B5B28A30BBC
:1000C0005B28003409308600552003308600552017
:1000D0000630860055200C3086005520A50B62287E
:1000E0000034BC0A8421C030860055206030860070
:1000F0005520303086005520903086005520A60BC4
:100100007128822890308600552030308600552096
:10011000603086005520C03086005520A70B82280D
:1001200000342030A4009920A90B9128A820003485
:1001300098280C3086005520063086005520033064
:1001400086005520093086005520A40B99280034DC
:10015000C030860055206030860055203030860043
:100160005520903086005520AA0BA8280034203056
:10017000A5006220BA0BB7280034903086005520C5
:10018000303086005520603086005520C030860013
:100190005520BB0BBD2800340908AC0001302C02EF
:1001A000F821F82103191A28CC280908AC000130DD
:1001B0002C02F821F8210319E52804302C02031938
:1001C000E228D528BD20B720CC282B0AAB0001306F
:1001D0002B020319F72802302B0203192A290330B6
:1001E0002B0203192E2904302B0203193229003067
:1001F000AE003821F821F8210130AE003821F82175
:10020000F8210230AE003821F821F8210330AE0089
:100210003821F821F8210430AE003821F821F821E6
:100220000530AE003821F821F8210630AE00382123
:10023000F821F8210730AE003821F821F8210830E4
:10024000AE003821F821F8210930AE003821F8211C
:10025000F821D5280230AE003821D5280330AE0071
:100260003821D5280030AB000430AE003821D52825
:1002700000302E020319612901302E02031964296E
:1002800002302E020319672903302E0203196A294E
:1002900004302E0203196D2905302E02031970292E
:1002A00006302E020319732907302E02031976290E
:1002B00008302E020319792909302E0203197C29EE
:1002C000D528C03087000034F93087000034A430CE
:1002D00087000034B0308700003499308700003444
:1002E000923087000034823087000034F830870075
:1002F0000034803087000034983087000034892132
:100300003508AE0038217F2989213508B800E5215C
:100310000800031595210B111F151F198D291E08A3
:10032000AF002F08A621D6210800FF30B000B10091
:10033000B2009B210800B00B9B299F210800B10B44
:100340009F29A3210800B20BA32908000930B5009A
:10035000D2302F0203180800B503C2302F02031851
:100360000800B503AE302F0203180800B5039E3015
:100370002F0203180800B5038A302F020318080063
:10038000B50375302F0203180800B50352302F0251
:1003900003180800B50333302F0203180800B50313
:1003A0001C302F0203180800B5030800350834027A
:1003B0000318E22135083302031CDF210800350849
:1003C000B30008003508B4000800380837020318E5
:1003D000F52138083602031CEE2108003808B60063
:1003E0003908A9003C08AA0008003808B70008002E
:1003F0005520552055205520552055205520552055
:100400005520552055205520552055205520552044
:020410000800E2
:02400E00713F00
:00000001FF
