:100000008312031341309F008316031307308100CE
:100010000E309F000514831203130030AB00AE00B6
:100020000730AD008316860187010001831204307A
:10003000A8000030AE001C280030860022207F205F
:10004000A52886288030A400A50035208030A60091
:10005000A7006020A80B22280430A8002F28803099
:10006000A5005120A80B2F2800340C308600442016
:100070000630860044200330860044200930860084
:100080004420A40B352800340130A3000430A20022
:100090000430A100A10B4A28A20B4A28A30B4A282E
:1000A00000340930860044200330860044200630A6
:1000B000860044200C3086004420A50B51280034D3
:1000C000E321C03086004420603086004420303078
:1000D00086004420903086004420A60B60287028BB
:1000E0009030860044203030860044206030860006
:1000F0004420C03086004420A70B70280034803094
:10010000A4008720A90B7F289620003486280C3075
:1001100086004420063086004420033086004420B8
:10012000093086004420A40B87280034C0308600A4
:1001300044206030860044203030860044209030D7
:1001400086004420AA0B962800340908AC00013030
:100150002C024420442044204420442044204420B5
:10016000442044204420442044200319B828A528D2
:100170002B0AAB0001302B020319CA2802302B02D4
:100180000319892903302B0203198D2904302B020E
:10019000031991290030AE009721442044204420C7
:1001A000442044204420442044204420442044202F
:1001B000442044204420442044200130AE009721B4
:1001C000442044204420442044204420442044200F
:1001D00044204420442044204420442044204420FF
:1001E0000230AE0097214420442044204420442083
:1001F00044204420442044204420442044204420DF
:100200004420442044200330AE0097214420442061
:1002100044204420442044204420442044204420BE
:100220004420442044204420442044200430AE0094
:10023000972144204420442044204420442044204A
:10024000442044204420442044204420442044208E
:1002500044200530AE00972144204420442044200F
:10026000442044204420442044204420442044206E
:1002700044204420442044200630AE0097214420EE
:10028000442044204420442044204420442044204E
:10029000442044204420442044204420442007306B
:1002A000AE00972144204420442044204420442090
:1002B000442044204420442044204420442044201E
:1002C000442044200830AE0097214420442044209C
:1002D00044204420442044204420442044204420FE
:1002E000442044204420442044200930AE0097217B
:1002F00044204420442044204420442044204420DE
:1003000044204420442044204420442044204420CD
:10031000A5280230AE009721A5280330AE00972112
:10032000A5280030AB000430AE009721A52800308E
:100330002E020319C02901302E020319C3290230ED
:100340002E020319C62903302E020319C9290430CD
:100350002E020319CC2905302E020319CF290630AD
:100360002E020319D22907302E020319D52908308D
:100370002E020319D82909302E020319DB29A528DA
:10038000C03087000034F93087000034A430870083
:100390000034B03087000034993087000034923048
:1003A00087000034823087000034F8308700003442
:1003B000803087000034983087000034E821350809
:1003C000AE009721DE29E8213508B8004422080054
:1003D0000315F4210B111F151F19EC291E08AF007E
:1003E0002F08052235220800FF30B000B100B2000E
:1003F000FA210800B00BFA29FE210800B10BFE29F2
:1004000002220800B20B022A08000930B500D230DF
:100410002F0203180800B503C2302F02031808008A
:10042000B503AE302F0203180800B5039E302F022B
:1004300003180800B5038A302F0203180800B5031B
:1004400075302F0203180800B50352302F0203182D
:100450000800B50333302F0203180800B5031C3021
:100460002F0203180800B5030800350834020318EA
:10047000412235083302031C3E2208003508B30030
:1004800008003508B4000800380837020318542261
:1004900038083602031C4D2208003808B600280828
:0E04A000A9002608AA0008003808B7000800C6
:02400E00713F00
:00000001FF
