:100000008316860183120430B1000130A0002D3028
:10001000B4000A280D206C2073288030A700A800A7
:1000200020208030A900B0004B20B10B0D280430F7
:10003000B1001A288030A8003C20B10B1A280034E7
:100040000C3086002F20063086002F2003308600DB
:100050002F20093086002F20A70B202800340130E4
:10006000A6000430A5000430A400A40B3528A50B7D
:100070003528A60B35280034093086002F200330A0
:1000800086002F20063086002F200C3086002F207F
:10009000A80B3C280034C03086002F20603086003A
:1000A0002F20303086002F20903086002F20A90B83
:1000B0004B285A28903086002F20303086002F2081
:1000C000603086002F20C03086002F20B00B5A28C9
:1000D00000340030860000348030A7007420A00B6C
:1000E0006C288320003473280C3086002F200630C3
:1000F00086002F20033086002F20093086002F2015
:10010000A70B74280034C03086002F206030860092
:100110002F20303086002F20903086002F20B40B07
:0401200083280034FC
:02400E00713F00
:00000001FF
