:100000000030AB00AE00831603130E309F000730A4
:100010008900831203130730AD0083168601870120
:10002000000183120430A8000030AE000130A900A6
:100030002D30AA001B28A22883288030A400A50008
:1000400030208030A600A7005B20A80B1D280430BC
:10005000A8002A288030A5004C20A80B2A280034AC
:100060000C3086003F20063086003F20033086009B
:100070003F20093086003F20A40B30280034013097
:10008000A3000430A2000430A100A10B4528A20B5C
:100090004528A30B45280034093086003F20033053
:1000A00086003F20063086003F200C3086003F202F
:1000B000A50B4C280034C03086003F2060308600FD
:1000C0003F20303086003F20903086003F20A60B36
:1000D0005B286A28903086003F20303086003F2021
:1000E000603086003F20C03086003F20A70B6A2882
:1000F00000340030860000348030A4008420A90B36
:100100007C289320003483280C3086003F20063062
:1001100086003F20033086003F20093086003F20C4
:10012000A40B84280034C03086003F206030860055
:100130003F20303086003F20903086003F20AA0BC1
:10014000932800340908AC0001302C023F203F20E6
:100150003F203F203F203F203F203F203F203F20A7
:100160003F203F200319B528A2282B0AAB000130FD
:100170002B020319C72802302B020319CD280330A4
:100180002B020319D32804302B020319D92801307C
:1001900086000130AE00E120A22802308600023045
:1001A000AE00E120A228043086000330AE00E1203A
:1001B000A228083086000030AB000430AE00E120F9
:1001C000A22800302E0203190C2901302E02031937
:1001D0000F2902302E020319122903302E020319AF
:1001E000152904302E020319182905302E0203198F
:1001F0001B2906302E0203191E2907302E0203196F
:10020000212908302E020319242909302E0203194E
:10021000272900308600A2283F3087000034F930BB
:1002200087000034A43087000034B03087000034E9
:100230009930870000346D30870000347D308700AE
:100240000034F83087000034803087000034983064
:0402500087000034EF
:02400E00713F00
:00000001FF
