:100000008312031341309F008316031307308100CE
:100010000E309F000514831203130030AB00AE00B6
:100020000730AD008316860187010001831204307A
:10003000A8000030AE001C2800308600222080205E
:10004000A62887288030A400A50036208030A6008E
:10005000A700B90A6120A80B22280430A800302884
:100060008030A5005220A80B302800340C308600C8
:1000700045200630860045200330860045200930A3
:1000800086004520A40B362800340130A30004303C
:10009000A2000430A100A10B4B28A20B4B28A30BFC
:1000A0004B28003409308600452003308600452067
:1000B0000630860045200C3086004520A50B5228CE
:1000C0000034E421C03086004520603086004520A1
:1000D000303086004520903086004520A60B6128F0
:1000E00071289030860045203030860045206030F1
:1000F00086004520C03086004520A70B71280034BB
:100100008030A4008820A90B8028972000348728FD
:100110000C308600452006308600452003308600DE
:100120004520093086004520A40B88280034C030C3
:10013000860045206030860045203030860045200E
:10014000903086004520AA0B972800340908AC009F
:1001500001302C02452045204520452045204520E2
:100160004520452045204520452045200319B92834
:10017000A6282B0AAB0001302B020319CB28023032
:100180002B0203198A2903302B0203198E2904300C
:100190002B02031992290030AE00982145204520FA
:1001A0004520452045204520452045204520452027
:1001B0004520452045204520452045200130AE0002
:1001C00098214520452045204520452045204520B3
:1001D00045204520452045204520452045204520F7
:1001E00045200230AE00982145204520452045207D
:1001F00045204520452045204520452045204520D7
:1002000045204520452045200330AE00982145205B
:1002100045204520452045204520452045204520B6
:1002200045204520452045204520452045200430D7
:10023000AE009821452045204520452045204520F9
:100240004520452045204520452045204520452086
:10025000452045200530AE00982145204520452009
:100260004520452045204520452045204520452066
:10027000452045204520452045200630AE009821E8
:100280004520452045204520452045204520452046
:100290004520452045204520452045204520452036
:1002A0000730AE00982145204520452045204520B7
:1002B0004520452045204520452045204520452016
:1002C0004520452045200830AE0098214520452096
:1002D00045204520452045204520452045204520F6
:1002E0004520452045204520452045200930AE00C9
:1002F0009821452045204520452045204520452082
:1003000045204520452045204520452045204520C5
:100310004520A6280230AE009821A6280330AE0062
:100320009821A6280030AB000430AE009821A62802
:1003300000302E020319C12901302E020319C429ED
:1003400002302E020319C72903302E020319CA29CD
:1003500004302E020319CD2905302E020319D029AD
:1003600006302E020319D32907302E020319D6298D
:1003700008302E020319D92909302E020319DC296D
:10038000A628C03087000034F93087000034A4303C
:1003900087000034B0308700003499308700003483
:1003A000923087000034823087000034F8308700B4
:1003B0000034803087000034983087000034E92111
:1003C0003508AE009821DF29E9213508B80045221B
:1003D00008000315F5210B111F151F19ED291E0823
:1003E000AF002F08062236220800FF30B000B1000F
:1003F000B200FB210800B00BFB29FF210800B10B64
:10040000FF2903220800B20B032A08000930B500B7
:10041000D2302F0203180800B503C2302F02031890
:100420000800B503AE302F0203180800B5039E3054
:100430002F0203180800B5038A302F0203180800A2
:10044000B50375302F0203180800B50352302F0290
:1004500003180800B50333302F0203180800B50352
:100460001C302F0203180800B503080035083402B9
:100470000318422235083302031C3F2208003508C6
:10048000B30008003508B400080038083702031824
:10049000552238083602031C4E2208003808B600E0
:1004A0003908A9002608AA0008003808B700080083
:02400E00713F00
:00000001FF
