:100000008312031341309F008316031307308100CE
:100010000E309F000514831203130030AB00AE00B6
:100020000730AD0083168601870100018312FF307F
:10003000AE001A2823202E202908BA002A08BB0067
:100040008F20CA2896281030A8000030B60009304A
:10005000B70000308600A900AA0008002030A400E4
:10006000A50044208030A600A700B90A6F20003008
:10007000BC00A80B2E280430A8003E288030A50024
:100080006020A80B3E2800340C3086005320063038
:100090008600532003308600532009308600532009
:1000A000A40B442800340130A3000430A200043023
:1000B000A100A10B5928A20B5928A30B59280034E1
:1000C0000930860053200330860053200630860016
:1000D00053200C3086005320A50B60280034BC0A46
:1000E0007821C030860053206030860053203030A5
:1000F00086005320903086005320A60B6F2880285E
:1001000090308600532030308600532060308600C7
:100110005320C03086005320A70B802800342030A5
:10012000A4009720A90B8F28A620003496280C3015
:10013000860053200630860053200330860053206B
:10014000093086005320A40B97280034C030860065
:10015000532060308600532030308600532090308A
:1001600086005320AA0BA62800342030A50060206A
:10017000BA0BB5280034903086005320303086000A
:100180005320603086005320C03086005320BB0BC4
:10019000BB2800340908AC0001302C02EC21031903
:1001A000D92804302C020319D628CA28BB20B52030
:1001B0001A282B0AAB0001302B020319EB2802305E
:1001C0002B0203191E2903302B02031922290430A4
:1001D0002B02031926290030AE002C21EC21EC2142
:1001E0000130AE002C21EC21EC210230AE002C219C
:1001F000EC21EC210330AE002C21EC21EC21043069
:10020000AE002C21EC21EC210530AE002C21EC219C
:10021000EC210630AE002C21EC21EC210730AE00A1
:100220002C21EC21EC210830AE002C21EC21EC211A
:100230000930AE002C21EC21EC21CA280230AE009E
:100240002C21CA280330AE002C21CA280030AB0074
:100250000430AE002C21CA2800302E020319552983
:1002600001302E020319582902302E0203195B298E
:1002700003302E0203195E2904302E02031961296E
:1002800005302E020319642906302E02031967294E
:1002900007302E0203196A2908302E0203196D292E
:1002A00009302E0203197029CA28C0308700003493
:1002B000F93087000034A43087000034B030870064
:1002C0000034993087000034923087000034823047
:1002D00087000034F8308700003480308700003415
:1002E0009830870000347D213508AE002C21732919
:1002F0007D213508B800D9210800031589210B118B
:100300001F151F1981291E08AF002F089A21CA2125
:100310000800FF30B000B100B2008F210800B00B20
:100320008F2993210800B10B932997210800B20B64
:10033000972908000930B500D2302F0203180800B1
:10034000B503C2302F0203180800B503AE302F02E8
:1003500003180800B5039E302F0203180800B503E8
:100360008A302F0203180800B50375302F020318D6
:100370000800B50352302F0203180800B5033330CC
:100380002F0203180800B5031C302F0203180800C1
:10039000B5030800350834020318D62135083302A6
:1003A000031CD32108003508B30008003508B40049
:1003B0000800380837020318E92138083602031C00
:1003C000E22108003808B6003908A9003C08AA0054
:1003D00008003808B700080053205320532053204A
:1003E0005320532053205320532053205320532075
:0A03F000532053205320532008002F
:02400E00713F00
:00000001FF
