:100000008312031341309F008316031307308100CE
:100010000E309F0005140812881208138813081464
:100020008814081588158516831203130030AB0059
:10003000AE000730AD0083168601870100018312F0
:10004000FF3087000130BF00BE0000308800E42888
:100050003B2048202908BA002A08BB00A92001300B
:10006000C0000130C2003608C1003608C3000030AD
:100070008600ED28B0281030A8000030B600093006
:10008000B700003086000030B900A900AA000800BF
:100090002030A400A5005E208030A600A700B90A89
:1000A00089200030BC00A80B48280430A80058283C
:1000B0008030A5007A20A80B582800340C30860028
:1000C0006D20063086006D20033086006D200930DB
:1000D00086006D20A40B5E2800340130A30004309C
:1000E000A2000430A100A10B7328A20B7328A30B5C
:1000F00073280034093086006D20033086006D209F
:10010000063086006D200C3086006D20A50B7A2805
:100110000034BC0A7921C03086006D206030860032
:100120006D20303086006D20903086006D20A60B4B
:1001300089289A28903086006D20303086006D2006
:10014000603086006D20C03086006D20A70B9A2895
:1001500000342030A400B120A90BA928C02000340D
:10016000B0280C3086006D20063086006D200330EC
:1001700086006D20093086006D20A40BB128003464
:10018000C03086006D20603086006D2030308600E3
:100190006D20903086006D20AA0BC02800342030DE
:1001A000A5007A20BA0BCF280034903086006D204D
:1001B000303086006D20603086006D20C0308600B3
:1001C0006D20BB0BD52800340908AC0001302C028F
:1001D000EF21EF2103192828E4280908AC00013099
:1001E0002C02EF21EF210319012904302C020319FD
:1001F000FE2889180922851A5922ED28D520CF20FA
:10020000E4282B0AAB0001302B020319132902301A
:100210002B020319192903302B0203191F2904305B
:100220002B02031925293608AE002D21EF21EF21DD
:10023000ED284008AE002D21EF21EF21ED284208E6
:10024000AE002D21EF21EF21ED280030AB00013071
:10025000AE002D21EF21EF21ED2800302E020319F1
:10026000562901302E020319592902302E02031992
:100270005C2903302E0203195F2904302E02031972
:10028000622905302E020319652906302E02031952
:10029000682907302E0203196B2908302E02031932
:1002A0006E2909302E0203197129ED28C03087000C
:1002B0000034F93087000034A43087000034B030B7
:1002C0008700003499308700003492308700003472
:1002D000823087000034F830870000348030870097
:1002E000003498308700003480213508AE002D217D
:1002F000742980213508B800AE002D21DC210800CA
:1003000003158C210B111F151F1984291E08AF001E
:100310002F089D21CD210800FF30B000B100B200B0
:1003200092210800B00B922996210800B10B962962
:100330009A210800B20B9A2908000930B500D23082
:100340002F0203180800B503C2302F02031808005B
:10035000B503AE302F0203180800B5039E302F02FC
:1003600003180800B5038A302F0203180800B503EC
:1003700075302F0203180800B50352302F020318FE
:100380000800B50333302F0203180800B5031C30F2
:100390002F0203180800B5030800350834020318BB
:1003A000D92135083302031CD62108003508B300D3
:1003B00008003508B4000800380837020318EC219B
:1003C00038083602031CE52108003808B600390851
:1003D000A9003C08AA0008003808B70008006D20F2
:1003E0006D206D206D206D206D206D206D206D20A5
:1003F0006D206D206D206D206D206D206D2008001A
:10040000CB2289180922CB220800851A5922CB2237
:100410000800CB2201303F0203194122CB220230D7
:100420003F0203194722CB2203303F0203194D221A
:10043000CB2204303F0203195322CB2205303F0266
:1004400003197B22BF0A08003D18312A332ABD1840
:10045000352A372A3D19392A3B2ABD193D2A3F2A18
:1004600008000816272A0812272A88162A2A88121E
:100470002A2A08172D2A08132D2A8817302A8813AC
:10048000302A4008BD0024228918412A080041086A
:10049000BD0024228918472A08004208BD002422F2
:1004A00089184D2A08004308BD0024228918532AC0
:1004B0000800CB2201303E0203199D22CB220230DC
:1004C0003E020319A322CB2203303E020319A922C4
:1004D000CB2204303E020319AF22CB2205303E026C
:1004E00003197422BE0A08000030BE00B522C022E3
:1004F000851A742A08000030BF0089187B2A08007A
:100500003D14932A3D10932ABD14962ABD10962AB5
:100510003D15992A3D11992ABD159C2ABD119C2A89
:100520000818802A822A8818842A862A0819882A84
:100530008A2A88198C2A8E2A080090223D08C40035
:10054000851A9D2A080090223D08C500851AA32A15
:10055000080090223D08C600851AA92A08009022AA
:100560003D08C700851AAF2A080041084502031C50
:10057000BF2ABA2A4408C0004508C1000800080084
:1005800043084702031CC52ACA2A4608C200470876
:10059000C300080008008730C8001430C900C80B29
:0A05A000D22AC90BCF2AD42A080082
:02400E00713F00
:00000001FF
