:100000008312031341309F008316031307308100CE
:100010000E309F000514831203130030AB00AE00B6
:100020000730AD008316860187010001831204307A
:10003000A8000030AE000130A9002D30AA00202811
:10004000A72888288030A400A50035208030A6008D
:10005000A7006020A80B22280430A8002F28803099
:10006000A5005120A80B2F2800340C308600442016
:100070000630860044200330860044200930860084
:100080004420A40B352800340130A3000430A20022
:100090000430A100A10B4A28A20B4A28A30B4A282E
:1000A00000340930860044200330860044200630A6
:1000B000860044200C3086004420A50B51280034D3
:1000C000C0308600442060308600442030308600F6
:1000D0004420903086004420A60B60286F28903082
:1000E0008600442030308600442060308600442062
:1000F000C03086004420A70B6F28003400308600F3
:1001000000348030A4008920A90B81289820003475
:1001100088280C30860044200630860044200330B6
:1001200086004420093086004420A40B892800342E
:10013000C030860044206030860044203030860085
:100140004420903086004420AA0B982800340908E7
:10015000AC0001302C0244204420442044204420A0
:1001600044204420442044204420442044200319B7
:10017000BA28A7282B0AAB0001302B020319CC2880
:1001800002302B020319D22803302B020319D8287E
:1001900004302B020319DE28013086000130AE0046
:1001A000E620A728023086000230AE00E620A7280D
:1001B000043086000330AE00E620A7280830860011
:1001C0000030AB000430AE00E620A72800302E023D
:1001D0000319112901302E020319142902302E02AD
:1001E0000319172903302E0203191A2904302E028D
:1001F00003191D2905302E020319202906302E026D
:100200000319232907302E020319262908302E024C
:100210000319292909302E0203192C2900308600E0
:10022000A728C03087000034F93087000034A4309C
:1002300087000034B03087000034993087000034E4
:10024000923087000034823087000034F830870015
:100250000034803087000034983087000034342127
:100260003508AE00E6202F29031547210B111F1575
:100270001F1938291E08AF002F08582188210800AF
:1002800020302F0245298717342986133429FF305F
:10029000B000B100B2004D210800B00B4D29512132
:1002A0000800B10B512955210800B20B552908004F
:1002B0000930B500D2302F0203180800B503C23050
:1002C0002F0203180800B503AE302F0203180800F0
:1002D000B5039E302F0203180800B5038A302F02A1
:1002E00003180800B50375302F0203180800B50382
:1002F00052302F0203180800B50333302F020318C1
:100300000800B5031C302F0203180800B5030800CD
:10031000350834020318962135083302031C912155
:1003200008003508B3000130880008003508B40023
:0603300002308800080005
:02400E00713F00
:00000001FF
