:100000008312031341309F008316031307308100CE
:100010000E309F000514831203130030AB00AE00B6
:100020000730AD008316860187010001831204307A
:10003000A800FF30AE000030B6000930B70020281D
:100040000030860026208420AA288B288030A40037
:10005000A5003A208030A600A700B90A6520A80BA9
:1000600026280430A80034288030A5005620A80B8C
:10007000342800340C3086004920063086004920A0
:10008000033086004920093086004920A40B3A2815
:1000900000340130A3000430A2000430A100A10B01
:1000A0004F28A20B4F28A30B4F280034093086009D
:1000B00049200330860049200630860049200C3054
:1000C00086004920A50B562800345121C0308600F7
:1000D0004920603086004920303086004920903029
:1000E00086004920A60B6528752890308600492097
:1000F000303086004920603086004920C0308600BC
:100100004920A70B752800348030A4008C20A90B4F
:1001100084289B2000348B280C3086004920063030
:100120008600492003308600492009308600492096
:10013000A40B8C280034C030860049206030860033
:100140004920303086004920903086004920AA0B93
:100150009B2800340908AC0001302C02C52103198A
:10016000B228AA282B0AAB0001302B020319C4289D
:1001700002302B020319F72803302B020319FB2846
:1001800004302B020319FF280030AE000521C521E1
:10019000C5210130AE000521C521C5210230AE00C8
:1001A0000521C521C5210330AE000521C521C5218A
:1001B0000430AE000521C521C5210530AE00052162
:1001C000C521C5210630AE000521C521C521073056
:1001D000AE000521C521C5210830AE000521C5218D
:1001E000C5210930AE000521C521C521AA2802304C
:1001F000AE000521AA280330AE000521AA28003050
:10020000AB000430AE000521AA2800302E020319ED
:100210002E2901302E020319312902302E02031932
:10022000342903302E020319372904302E02031912
:100230003A2905302E0203193D2906302E020319F2
:10024000402907302E020319432908302E020319D2
:10025000462909302E0203194929AA28C0308700EF
:100260000034F93087000034A43087000034B03007
:1002700087000034993087000034923087000034C2
:10028000823087000034F8308700003480308700E7
:10029000003498308700003456213508AE0005211F
:1002A0004C2956213508B800B221080003156221F7
:1002B0000B111F151F195A291E08AF002F08732193
:1002C000A3210800FF30B000B100B200682108008F
:1002D000B00B68296C210800B10B6C297021080053
:1002E000B20B702908000930B500D2302F02031874
:1002F0000800B503C2302F0203180800B503AE3062
:100300002F0203180800B5039E302F0203180800BF
:10031000B5038A302F0203180800B50375302F0289
:1003200003180800B50352302F0203180800B50364
:1003300033302F0203180800B5031C302F020318B6
:100340000800B5030800350834020318AF2135084A
:100350003302031CAC2108003508B300080035083F
:10036000B4000800380837020318C22138083602E2
:10037000031CBB2108003808B6003908A90026086C
:10038000AA0008003808B700080049204920492081
:100390004920492049204920492049204920492015
:0C03A0004920492049204920492008003C
:02400E00713F00
:00000001FF
