:100000000030AB00831603130E309F0007308900C9
:10001000831203130730AD0083168601000183129B
:100020000430A8000130A9002D30AA0017289E280E
:100030007F288030A400A5002C208030A600A700D7
:100040005720A80B19280430A80026288030A500C6
:100050004820A80B262800340C3086003B200630B0
:1000600086003B20033086003B20093086003B2081
:10007000A40B2C2800340130A3000430A20004306B
:10008000A100A10B4128A20B4128A30B4128003459
:10009000093086003B20033086003B200630860076
:1000A0003B200C3086003B20A50B48280034C03094
:1000B00086003B20603086003B20303086003B20AD
:1000C000903086003B20A60B57286628903086008B
:1000D0003B20303086003B20603086003B20C03023
:1000E00086003B20A70B66280034003086000034D1
:1000F0008030A4008020A90B78288F2000347F282E
:100100000C3086003B20063086003B200330860002
:100110003B20093086003B20A40B80280034C030EF
:1001200086003B20603086003B20303086003B203C
:10013000903086003B20AA0B8F2800340908AC00C1
:1001400001302C020319A5289E282B0AAB00013090
:100150002B020319B72802302B020319BF280330E2
:100160002B020319C72804302B020319CF280130B2
:1001700086003B203B203B203B203B209E2802303A
:1001800086003B203B203B203B203B209E28043028
:1001900086003B203B203B203B203B209E28083014
:1001A00086003B203B203B203B203B200030AB0027
:0201B0009E2887
:02400E00713F00
:00000001FF
